{
  "_format": "hh-sol-artifact-1",
  "contractName": "QuizFaucet",
  "sourceName": "contracts/QuizFaucet.sol",
  "abi": [
    {
      "inputs": [],
      "stateMutability": "nonpayable",
      "type": "constructor"
    },
    {
      "anonymous": false,
      "inputs": [
        {
          "indexed": true,
          "internalType": "address",
          "name": "user",
          "type": "address"
        },
        {
          "indexed": false,
          "internalType": "uint256",
          "name": "amount",
          "type": "uint256"
        },
        {
          "indexed": false,
          "internalType": "uint256",
          "name": "score",
          "type": "uint256"
        }
      ],
      "name": "RewardClaimed",
      "type": "event"
    },
    {
      "inputs": [
        {
          "internalType": "address",
          "name": "user",
          "type": "address"
        }
      ],
      "name": "canClaim",
      "outputs": [
        {
          "internalType": "bool",
          "name": "",
          "type": "bool"
        }
      ],
      "stateMutability": "view",
      "type": "function"
    },
    {
      "inputs": [
        {
          "internalType": "address",
          "name": "recipient",
          "type": "address"
        },
        {
          "internalType": "uint256",
          "name": "scorePercentage",
          "type": "uint256"
        }
      ],
      "name": "claimReward",
      "outputs": [
        {
          "internalType": "bool",
          "name": "",
          "type": "bool"
        }
      ],
      "stateMutability": "nonpayable",
      "type": "function"
    },
    {
      "inputs": [
        {
          "internalType": "address",
          "name": "user",
          "type": "address"
        }
      ],
      "name": "getRemainingClaims",
      "outputs": [
        {
          "internalType": "uint256",
          "name": "",
          "type": "uint256"
        }
      ],
      "stateMutability": "view",
      "type": "function"
    },
    {
      "inputs": [],
      "name": "maxClaimsPerDay",
      "outputs": [
        {
          "internalType": "uint256",
          "name": "",
          "type": "uint256"
        }
      ],
      "stateMutability": "view",
      "type": "function"
    },
    {
      "inputs": [],
      "name": "maxReward",
      "outputs": [
        {
          "internalType": "uint256",
          "name": "",
          "type": "uint256"
        }
      ],
      "stateMutability": "view",
      "type": "function"
    },
    {
      "inputs": [],
      "name": "owner",
      "outputs": [
        {
          "internalType": "address",
          "name": "",
          "type": "address"
        }
      ],
      "stateMutability": "view",
      "type": "function"
    },
    {
      "inputs": [
        {
          "internalType": "uint256",
          "name": "_maxClaimsPerDay",
          "type": "uint256"
        }
      ],
      "name": "setMaxClaimsPerDay",
      "outputs": [],
      "stateMutability": "nonpayable",
      "type": "function"
    },
    {
      "inputs": [
        {
          "internalType": "uint256",
          "name": "_maxReward",
          "type": "uint256"
        }
      ],
      "name": "setMaxReward",
      "outputs": [],
      "stateMutability": "nonpayable",
      "type": "function"
    },
    {
      "inputs": [
        {
          "internalType": "address",
          "name": "",
          "type": "address"
        }
      ],
      "name": "userClaims",
      "outputs": [
        {
          "internalType": "uint256",
          "name": "lastClaimTimestamp",
          "type": "uint256"
        },
        {
          "internalType": "uint256",
          "name": "claimsToday",
          "type": "uint256"
        }
      ],
      "stateMutability": "view",
      "type": "function"
    },
    {
      "inputs": [],
      "name": "withdraw",
      "outputs": [],
      "stateMutability": "nonpayable",
      "type": "function"
    },
    {
      "stateMutability": "payable",
      "type": "receive"
    }
  ],
  "bytecode": "0x6080604052600260015567016345785d8a0000600255348015602057600080fd5b50336000806101000a81548173ffffffffffffffffffffffffffffffffffffffff021916908373ffffffffffffffffffffffffffffffffffffffff160217905550610f9d806100706000396000f3fe6080604052600436106100955760003560e01c80638da5cb5b116100595780638da5cb5b146101725780639478c8b31461019d578063bf3506c1146101da578063f0a3563c14610217578063f607fc12146102555761009c565b8063174e31c4146100a157806325c33e13146100de5780633ccfd60b146101075780633e6892b61461011e57806366a78e6c146101475761009c565b3661009c57005b600080fd5b3480156100ad57600080fd5b506100c860048036038101906100c39190610a48565b610280565b6040516100d59190610aa3565b60405180910390f35b3480156100ea57600080fd5b5061010560048036038101906101009190610abe565b610593565b005b34801561011357600080fd5b5061011c61062b565b005b34801561012a57600080fd5b5061014560048036038101906101409190610abe565b610789565b005b34801561015357600080fd5b5061015c610821565b6040516101699190610afa565b60405180910390f35b34801561017e57600080fd5b50610187610827565b6040516101949190610b24565b60405180910390f35b3480156101a957600080fd5b506101c460048036038101906101bf9190610b3f565b61084b565b6040516101d19190610afa565b60405180910390f35b3480156101e657600080fd5b5061020160048036038101906101fc9190610b3f565b6108ed565b60405161020e9190610aa3565b60405180910390f35b34801561022357600080fd5b5061023e60048036038101906102399190610b3f565b610985565b60405161024c929190610b6c565b60405180910390f35b34801561026157600080fd5b5061026a6109a9565b6040516102779190610afa565b60405180910390f35b60008060009054906101000a900473ffffffffffffffffffffffffffffffffffffffff1673ffffffffffffffffffffffffffffffffffffffff163373ffffffffffffffffffffffffffffffffffffffff1614610311576040517f08c379a000000000000000000000000000000000000000000000000000000000815260040161030890610c18565b60405180910390fd5b6064821115610355576040517f08c379a000000000000000000000000000000000000000000000000000000000815260040161034c90610c84565b60405180910390fd5b61035e836108ed565b61039d576040517f08c379a000000000000000000000000000000000000000000000000000000000815260040161039490610cf0565b60405180910390fd5b60006064836002546103af9190610d3f565b6103b99190610db0565b9050804710156103fe576040517f08c379a00000000000000000000000000000000000000000000000000000000081526004016103f590610e2d565b60405180910390fd5b6000600360008673ffffffffffffffffffffffffffffffffffffffff1673ffffffffffffffffffffffffffffffffffffffff16815260200190815260200160002090506201518081600001546104549190610e4d565b421061046557600081600101819055505b600181600101600082825461047a9190610e4d565b9250508190555042816000018190555060008573ffffffffffffffffffffffffffffffffffffffff16836040516104b090610eb2565b60006040518083038185875af1925050503d80600081146104ed576040519150601f19603f3d011682016040523d82523d6000602084013e6104f2565b606091505b5050905080610536576040517f08c379a000000000000000000000000000000000000000000000000000000000815260040161052d90610f13565b60405180910390fd5b8573ffffffffffffffffffffffffffffffffffffffff167ff01da32686223933d8a18a391060918c7f11a3648639edd87ae013e2e2731743848760405161057e929190610b6c565b60405180910390a26001935050505092915050565b60008054906101000a900473ffffffffffffffffffffffffffffffffffffffff1673ffffffffffffffffffffffffffffffffffffffff163373ffffffffffffffffffffffffffffffffffffffff1614610621576040517f08c379a000000000000000000000000000000000000000000000000000000000815260040161061890610c18565b60405180910390fd5b8060028190555050565b60008054906101000a900473ffffffffffffffffffffffffffffffffffffffff1673ffffffffffffffffffffffffffffffffffffffff163373ffffffffffffffffffffffffffffffffffffffff16146106b9576040517f08c379a00000000000000000000000000000000000000000000000000000000081526004016106b090610c18565b60405180910390fd5b60008060009054906101000a900473ffffffffffffffffffffffffffffffffffffffff1673ffffffffffffffffffffffffffffffffffffffff164760405161070090610eb2565b60006040518083038185875af1925050503d806000811461073d576040519150601f19603f3d011682016040523d82523d6000602084013e610742565b606091505b5050905080610786576040517f08c379a000000000000000000000000000000000000000000000000000000000815260040161077d90610f13565b60405180910390fd5b50565b60008054906101000a900473ffffffffffffffffffffffffffffffffffffffff1673ffffffffffffffffffffffffffffffffffffffff163373ffffffffffffffffffffffffffffffffffffffff1614610817576040517f08c379a000000000000000000000000000000000000000000000000000000000815260040161080e90610c18565b60405180910390fd5b8060018190555050565b60025481565b60008054906101000a900473ffffffffffffffffffffffffffffffffffffffff1681565b600080600360008473ffffffffffffffffffffffffffffffffffffffff1673ffffffffffffffffffffffffffffffffffffffff1681526020019081526020016000206040518060400160405290816000820154815260200160018201548152505090506201518081600001516108c19190610e4d565b42106108d2576001549150506108e8565b80602001516001546108e49190610f33565b9150505b919050565b600080600360008473ffffffffffffffffffffffffffffffffffffffff1673ffffffffffffffffffffffffffffffffffffffff1681526020019081526020016000206040518060400160405290816000820154815260200160018201548152505090506201518081600001516109639190610e4d565b4210610973576001915050610980565b6001548160200151109150505b919050565b60036020528060005260406000206000915090508060000154908060010154905082565b60015481565b600080fd5b600073ffffffffffffffffffffffffffffffffffffffff82169050919050565b60006109df826109b4565b9050919050565b6109ef816109d4565b81146109fa57600080fd5b50565b600081359050610a0c816109e6565b92915050565b6000819050919050565b610a2581610a12565b8114610a3057600080fd5b50565b600081359050610a4281610a1c565b92915050565b60008060408385031215610a5f57610a5e6109af565b5b6000610a6d858286016109fd565b9250506020610a7e85828601610a33565b9150509250929050565b60008115159050919050565b610a9d81610a88565b82525050565b6000602082019050610ab86000830184610a94565b92915050565b600060208284031215610ad457610ad36109af565b5b6000610ae284828501610a33565b91505092915050565b610af481610a12565b82525050565b6000602082019050610b0f6000830184610aeb565b92915050565b610b1e816109d4565b82525050565b6000602082019050610b396000830184610b15565b92915050565b600060208284031215610b5557610b546109af565b5b6000610b63848285016109fd565b91505092915050565b6000604082019050610b816000830185610aeb565b610b8e6020830184610aeb565b9392505050565b600082825260208201905092915050565b7f4f6e6c79206f776e65722063616e2063616c6c20746869732066756e6374696f60008201527f6e00000000000000000000000000000000000000000000000000000000000000602082015250565b6000610c02602183610b95565b9150610c0d82610ba6565b604082019050919050565b60006020820190508181036000830152610c3181610bf5565b9050919050565b7f53636f72652070657263656e74616765206d757374206265203c3d2031303000600082015250565b6000610c6e601f83610b95565b9150610c7982610c38565b602082019050919050565b60006020820190508181036000830152610c9d81610c61565b9050919050565b7f4461696c7920636c61696d206c696d6974207265616368656400000000000000600082015250565b6000610cda601983610b95565b9150610ce582610ca4565b602082019050919050565b60006020820190508181036000830152610d0981610ccd565b9050919050565b7f4e487b7100000000000000000000000000000000000000000000000000000000600052601160045260246000fd5b6000610d4a82610a12565b9150610d5583610a12565b9250828202610d6381610a12565b91508282048414831517610d7a57610d79610d10565b5b5092915050565b7f4e487b7100000000000000000000000000000000000000000000000000000000600052601260045260246000fd5b6000610dbb82610a12565b9150610dc683610a12565b925082610dd657610dd5610d81565b5b828204905092915050565b7f496e73756666696369656e74206661756365742062616c616e63650000000000600082015250565b6000610e17601b83610b95565b9150610e2282610de1565b602082019050919050565b60006020820190508181036000830152610e4681610e0a565b9050919050565b6000610e5882610a12565b9150610e6383610a12565b9250828201905080821115610e7b57610e7a610d10565b5b92915050565b600081905092915050565b50565b6000610e9c600083610e81565b9150610ea782610e8c565b600082019050919050565b6000610ebd82610e8f565b9150819050919050565b7f5472616e73666572206661696c65640000000000000000000000000000000000600082015250565b6000610efd600f83610b95565b9150610f0882610ec7565b602082019050919050565b60006020820190508181036000830152610f2c81610ef0565b9050919050565b6000610f3e82610a12565b9150610f4983610a12565b9250828203905081811115610f6157610f60610d10565b5b9291505056fea26469706673582212201f962c41fb2168b2c24918c1ae49781ee019018fd0e6bf47a767a2d784e6b72064736f6c634300081c0033",
  "linkReferences": {},
  "deployedLinkReferences": {}
}